{
  "contractName": "Authentication",
  "abi": [
    {
      "constant": false,
      "inputs": [],
      "name": "kill",
      "outputs": [],
      "payable": false,
      "stateMutability": "nonpayable",
      "type": "function"
    },
    {
      "constant": true,
      "inputs": [
        {
          "name": "",
          "type": "uint256"
        }
      ],
      "name": "models",
      "outputs": [
        {
          "name": "modelname",
          "type": "bytes32"
        },
        {
          "name": "name",
          "type": "bytes32"
        },
        {
          "name": "modeladdress",
          "type": "address"
        },
        {
          "name": "description",
          "type": "bytes32"
        },
        {
          "name": "cost",
          "type": "uint256"
        }
      ],
      "payable": false,
      "stateMutability": "view",
      "type": "function"
    },
    {
      "constant": true,
      "inputs": [],
      "name": "owner",
      "outputs": [
        {
          "name": "",
          "type": "address"
        }
      ],
      "payable": false,
      "stateMutability": "view",
      "type": "function"
    },
    {
      "constant": false,
      "inputs": [
        {
          "name": "newOwner",
          "type": "address"
        }
      ],
      "name": "transferOwnership",
      "outputs": [],
      "payable": false,
      "stateMutability": "nonpayable",
      "type": "function"
    },
    {
      "constant": true,
      "inputs": [],
      "name": "login",
      "outputs": [
        {
          "name": "",
          "type": "bytes32"
        }
      ],
      "payable": false,
      "stateMutability": "view",
      "type": "function"
    },
    {
      "constant": false,
      "inputs": [
        {
          "name": "name",
          "type": "bytes32"
        }
      ],
      "name": "signup",
      "outputs": [
        {
          "name": "",
          "type": "bytes32"
        }
      ],
      "payable": true,
      "stateMutability": "payable",
      "type": "function"
    },
    {
      "constant": false,
      "inputs": [
        {
          "name": "name",
          "type": "bytes32"
        }
      ],
      "name": "update",
      "outputs": [
        {
          "name": "",
          "type": "bytes32"
        }
      ],
      "payable": true,
      "stateMutability": "payable",
      "type": "function"
    },
    {
      "constant": false,
      "inputs": [
        {
          "name": "modelname",
          "type": "bytes32"
        },
        {
          "name": "description",
          "type": "bytes32"
        },
        {
          "name": "cost",
          "type": "uint256"
        }
      ],
      "name": "newModel",
      "outputs": [
        {
          "name": "modelID",
          "type": "uint256"
        }
      ],
      "payable": true,
      "stateMutability": "payable",
      "type": "function"
    },
    {
      "constant": true,
      "inputs": [],
      "name": "getModelCount",
      "outputs": [
        {
          "name": "",
          "type": "uint256"
        }
      ],
      "payable": false,
      "stateMutability": "view",
      "type": "function"
    },
    {
      "constant": false,
      "inputs": [
        {
          "name": "index",
          "type": "uint256"
        }
      ],
      "name": "getModel",
      "outputs": [
        {
          "name": "",
          "type": "bytes32"
        },
        {
          "name": "",
          "type": "bytes32"
        },
        {
          "name": "",
          "type": "address"
        },
        {
          "name": "",
          "type": "bytes32"
        },
        {
          "name": "",
          "type": "uint256"
        }
      ],
      "payable": true,
      "stateMutability": "payable",
      "type": "function"
    }
  ],
  "bytecode": "0x6060604052336000806101000a81548173ffffffffffffffffffffffffffffffffffffffff021916908373ffffffffffffffffffffffffffffffffffffffff160217905550610cab806100536000396000f3006060604052600436106100a4576000357c0100000000000000000000000000000000000000000000000000000000900463ffffffff16806341c0e1b5146100a95780634989dbb0146100be5780635c1397de146100e75780636a030ca91461011f5780636d361694146101b65780637bb6961a146102425780638b147245146102885780638da5cb5b146102c0578063b34e97e814610315578063f2fde38b14610346575b600080fd5b34156100b457600080fd5b6100bc61037f565b005b34156100c957600080fd5b6100d1610410565b6040518082815260200191505060405180910390f35b61010160048080356000191690602001909190505061041d565b60405180826000191660001916815260200191505060405180910390f35b341561012a57600080fd5b610140600480803590602001909190505061056a565b60405180866000191660001916815260200185600019166000191681526020018473ffffffffffffffffffffffffffffffffffffffff1673ffffffffffffffffffffffffffffffffffffffff16815260200183600019166000191681526020018281526020019550505050505060405180910390f35b6101cc60048080359060200190919050506105cf565b60405180866000191660001916815260200185600019166000191681526020018473ffffffffffffffffffffffffffffffffffffffff1673ffffffffffffffffffffffffffffffffffffffff16815260200183600019166000191681526020018281526020019550505050505060405180910390f35b61027260048080356000191690602001909190803560001916906020019091908035906020019091905050610707565b6040518082815260200191505060405180910390f35b6102a26004808035600019169060200190919050506108ee565b60405180826000191660001916815260200191505060405180910390f35b34156102cb57600080fd5b6102d3610a50565b604051808273ffffffffffffffffffffffffffffffffffffffff1673ffffffffffffffffffffffffffffffffffffffff16815260200191505060405180910390f35b341561032057600080fd5b610328610a75565b60405180826000191660001916815260200191505060405180910390f35b341561035157600080fd5b61037d600480803573ffffffffffffffffffffffffffffffffffffffff16906020019091905050610b17565b005b6000809054906101000a900473ffffffffffffffffffffffffffffffffffffffff1673ffffffffffffffffffffffffffffffffffffffff163373ffffffffffffffffffffffffffffffffffffffff16141561040e576000809054906101000a900473ffffffffffffffffffffffffffffffffffffffff1673ffffffffffffffffffffffffffffffffffffffff16ff5b565b6000600280549050905090565b600081600060010281600019161415151561043757600080fd5b6000600102600160003373ffffffffffffffffffffffffffffffffffffffff1673ffffffffffffffffffffffffffffffffffffffff1681526020019081526020016000206000015460001916141561051e5782600160003373ffffffffffffffffffffffffffffffffffffffff1673ffffffffffffffffffffffffffffffffffffffff1681526020019081526020016000206000018160001916905550600160003373ffffffffffffffffffffffffffffffffffffffff1673ffffffffffffffffffffffffffffffffffffffff168152602001908152602001600020600001549150610564565b600160003373ffffffffffffffffffffffffffffffffffffffff1673ffffffffffffffffffffffffffffffffffffffff1681526020019081526020016000206000015491505b50919050565b60028181548110151561057957fe5b90600052602060002090600502016000915090508060000154908060010154908060020160009054906101000a900473ffffffffffffffffffffffffffffffffffffffff16908060030154908060040154905085565b600080600080600080600102600160003373ffffffffffffffffffffffffffffffffffffffff1673ffffffffffffffffffffffffffffffffffffffff16815260200190815260200160002060000154600019161415151561062f57600080fd5b60028681548110151561063e57fe5b90600052602060002090600502016000015460028781548110151561065f57fe5b90600052602060002090600502016001015460028881548110151561068057fe5b906000526020600020906005020160020160009054906101000a900473ffffffffffffffffffffffffffffffffffffffff166002898154811015156106c157fe5b90600052602060002090600502016003015460028a8154811015156106e257fe5b9060005260206000209060050201600401549450945094509450945091939590929450565b600080600102600160003373ffffffffffffffffffffffffffffffffffffffff1673ffffffffffffffffffffffffffffffffffffffff16815260200190815260200160002060000154600019161415151561076157600080fd5b600280548091906001016107759190610be7565b5083600260016002805490500381548110151561078e57fe5b90600052602060002090600502016000018160001916905550600160003373ffffffffffffffffffffffffffffffffffffffff1673ffffffffffffffffffffffffffffffffffffffff16815260200190815260200160002060000154600260016002805490500381548110151561080157fe5b9060005260206000209060050201600101816000191690555033600260016002805490500381548110151561083257fe5b906000526020600020906005020160020160006101000a81548173ffffffffffffffffffffffffffffffffffffffff021916908373ffffffffffffffffffffffffffffffffffffffff16021790555082600260016002805490500381548110151561089957fe5b906000526020600020906005020160030181600019169055508160026001600280549050038154811015156108ca57fe5b90600052602060002090600502016004018190555060028054905090509392505050565b600081600060010281600019161415151561090857600080fd5b6000600102600160003373ffffffffffffffffffffffffffffffffffffffff1673ffffffffffffffffffffffffffffffffffffffff16815260200190815260200160002060000154600019161415151561096157600080fd5b6000600102600160003373ffffffffffffffffffffffffffffffffffffffff1673ffffffffffffffffffffffffffffffffffffffff1681526020019081526020016000206000015460001916141515610a495782600160003373ffffffffffffffffffffffffffffffffffffffff1673ffffffffffffffffffffffffffffffffffffffff1681526020019081526020016000206000018160001916905550600160003373ffffffffffffffffffffffffffffffffffffffff1673ffffffffffffffffffffffffffffffffffffffff168152602001908152602001600020600001549150610a4a565b5b50919050565b6000809054906101000a900473ffffffffffffffffffffffffffffffffffffffff1681565b600080600102600160003373ffffffffffffffffffffffffffffffffffffffff1673ffffffffffffffffffffffffffffffffffffffff168152602001908152602001600020600001546000191614151515610acf57600080fd5b600160003373ffffffffffffffffffffffffffffffffffffffff1673ffffffffffffffffffffffffffffffffffffffff16815260200190815260200160002060000154905090565b6000809054906101000a900473ffffffffffffffffffffffffffffffffffffffff1673ffffffffffffffffffffffffffffffffffffffff163373ffffffffffffffffffffffffffffffffffffffff161415610be457600073ffffffffffffffffffffffffffffffffffffffff168173ffffffffffffffffffffffffffffffffffffffff16141515610be357806000806101000a81548173ffffffffffffffffffffffffffffffffffffffff021916908373ffffffffffffffffffffffffffffffffffffffff1602179055505b5b50565b815481835581811511610c1457600502816005028360005260206000209182019101610c139190610c19565b5b505050565b610c7c91905b80821115610c785760008082016000905560018201600090556002820160006101000a81549073ffffffffffffffffffffffffffffffffffffffff02191690556003820160009055600482016000905550600501610c1f565b5090565b905600a165627a7a723058200d4c2f651a4c86bf1482a77da2237f362bb28f8deebdd0b88a137b891963962a0029",
  "source": "pragma solidity ^0.4.2;\n\nimport './zeppelin/lifecycle/Killable.sol';\n\ncontract Authentication is Killable {\n  struct User {\n    bytes32 name;\n  }\n  mapping (address => User) private users;\n\n  struct Model {\n    bytes32 modelname;\n    bytes32 name;\n    address modeladdress;\n    bytes32 description;\n    uint cost;\n  }\n\n  \n  Model[] public models;\n\n\n  \n\n  uint private id; // Stores user id temporarily\n\n  modifier onlyExistingUser {\n    // Check if user exists or terminate\n\n    require(!(users[msg.sender].name == 0x0));\n    _;\n  }\n\n  modifier onlyValidName(bytes32 name) {\n    // Only valid names allowed\n\n    require(!(name == 0x0));\n    _;\n  }\n\n  function login() constant\n  public\n  onlyExistingUser\n  returns (bytes32) {\n    return (users[msg.sender].name);\n  }\n\n  function signup(bytes32 name)\n  public\n  payable\n  onlyValidName(name)\n  returns (bytes32) {\n    // Check if user exists.\n    // If yes, return user name.\n    // If no, check if name was sent.\n    // If yes, create and return user.\n\n    if (users[msg.sender].name == 0x0)\n    {\n        users[msg.sender].name = name;\n\n        return (users[msg.sender].name);\n    }\n\n    return (users[msg.sender].name);\n  }\n\n  function update(bytes32 name)\n  public\n  payable\n  onlyValidName(name)\n  onlyExistingUser\n  returns (bytes32) {\n    // Update user name.\n\n    if (users[msg.sender].name != 0x0)\n    {\n        users[msg.sender].name = name;\n\n        return (users[msg.sender].name);\n    }\n  }\n\n\n  function newModel(bytes32 modelname, bytes32 description, uint cost)\n  public\n  payable\n  onlyExistingUser\n  returns (uint modelID) {\n        models.length++;\n        models[models.length-1].modelname = modelname;\n        models[models.length-1].name = users[msg.sender].name;\n        models[models.length-1].modeladdress = msg.sender;\n        models[models.length-1].description = description;\n        models[models.length-1].cost = cost;\n        \n        return models.length;\n    }\n\n\nfunction getModelCount()\npublic\nconstant\nreturns (uint) {\n  return models.length;\n}\n\nfunction getModel(uint index)\npublic\npayable\nonlyExistingUser\nreturns (bytes32, bytes32, address, bytes32, uint) {\n  \n    return (models[index].modelname, models[index].name, models[index].modeladdress, models[index].description, models[index].cost);\n  }\n}\n\n",
  "sourcePath": "/home/james/React/3D-Printer-Ethereum/contracts/Authentication.sol",
  "compiler": {
    "name": "solc",
    "version": "0.4.19+commit.c4cbbb05.Emscripten.clang"
  },
  "schemaVersion": "1.0.1",
  "updatedAt": "2018-02-21T16:58:19.989Z"
}